:100000000C9417010C9438010C9438010C943801AD
:100010000C9438010C9438010C9438010C9438017C
:100020000C9438010C9438010C9438010C9438016C
:100030000C9438010C9438010C9438010C9438015C
:100040000C9438010C9438010C9438010C9438014C
:100050000C9438010C9438010C9438010C9427024C
:100060000C9438010C9438010C9438010C9438012C
:100070000C9438010C9438010C9438010C9438011C
:100080000C9438010C9438010C9438010C9438010C
:100090000C9438010C9438010C9438010C943801FC
:1000A0000C9438010C9438010C9438010C943801EC
:1000B0000C9438010C9438010C9438010C943801DC
:1000C0000C9438010C9438010C9438010C943801CC
:1000D0000C9438010C9438010C9438010C943801BC
:1000E0000C9438010C948E010C9489010C94C3017A
:1000F0000C94D1010C94A4010C94D5010C94BF0173
:100100000C94B5010C94DB010C94DF010C94AC0150
:100110000C94A0010C94CD010C94C7010C94A8017F
:100120000C94B9010C94AF0100000A0B02090C0DEC
:100130000E0807030401000000000000000000009A
:1001400000000000000000000000000000000000AF
:10015000000000001211100000000000000000006C
:10016000000000000000000000000000000000008F
:100170002200250028002B002E003100340002014F
:100180000000050108010B010000210024002700E8
:100190002A002D0030003300010100000401070196
:1001A0000A010505050507050808080802020202FC
:1001B0000A0A080804040404010101010101010103
:1001C0000303030303030303040707070C0C0C0CCE
:1001D0000C0C0C0C020202020606060606060606B7
:1001E0000B0B0B0B0B0B0B0B010210202008081044
:1001F0002040102040800201020108040201010297
:10020000040810204080804020100804020180046F
:1002100002018040201008040201080402010102CA
:10022000040810204080010204081020408011249E
:100230001FBECFEFD1E2DEBFCDBF00E00CBF12E0AA
:10024000A0E0B2E0E2EFF6E000E00BBF02C00790F2
:100250000D92A03AB107D9F723E0A0EAB2E001C0BD
:100260001D92A932B207E1F70E9471020C94770344
:100270000C94000090E0FC01E851FE4F24918E5553
:100280009E4FFC018491882399F090E0880F991F7C
:10029000FC01E857FE4FA591B491FC01E259FE4FD5
:1002A000859194918FB7F894EC91E22BEC938FBFEA
:1002B0000895282F30E0F901E85DFE4F9491F9018F
:1002C000E851FE4F44912E553E4FF90124912223CF
:1002D00009F435C0992311F191509231F8F4E92FC6
:1002E000F0E08827E958FE4F8F4F0C946F03A80168
:1002F000AC018901A001A4018E01AF01B501B901D2
:10030000BF01C301C701CD01D1018E01D501DB01C0
:10031000DF01809180008F7780938000E22FF0E0F2
:10032000EE0FFF1FE259FE4FA591B4918FB7F894DD
:10033000EC91611148C040954E234C938FBF0895B6
:10034000809180008F7DE8CF80918000877FE4CF0F
:1003500084B58F7784BDE2CF84B58F7DFBCF80914C
:10036000B0008F778093B000D9CF8091B0008F7D9F
:10037000F9CF809190008F7780939000CFCF8091BC
:1003800090008F7DF9CF80919000877FF5CF80918D
:10039000A0008F778093A000C1CF8091A0008F7DB7
:1003A000F9CF8091A000877FF5CF809120018F77D2
:1003B00080932001B3CF809120018F7DF9CF809170
:1003C0002001877FF5CF4E2BB8CF3FB7F8948091AF
:1003D000A5029091A602A091A702B091A80226B50D
:1003E000A89B05C02F3F19F00196A11DB11D3FBF6D
:1003F000BA2FA92F982F8827BC01CD01620F711D3C
:10040000811D911D42E0660F771F881F991F4A9535
:10041000D1F708950F931F93CF93DF93C0E0D2E0FD
:1004200000E112E08881229660E00E945901F80103
:1004300080810E5F1F4F61E00E945901F2E0C031E0
:10044000DF0781F7DF91CF911F910F9108951F92E0
:100450000F920FB60F9211242F933F938F939F9378
:10046000AF93BF938091A1029091A202A091A302A9
:10047000B091A4023091A00223E0230F2D3758F54C
:100480000196A11DB11D2093A0028093A10290931B
:10049000A202A093A302B093A4028091A50290911E
:1004A000A602A091A702B091A8020196A11DB11DBC
:1004B0008093A5029093A602A093A702B093A802EE
:1004C000BF91AF919F918F913F912F910F900FBE50
:1004D0000F901F90189526E8230F0296A11DB11DBD
:1004E000D2CF789484B5826084BD84B5816084BDA8
:1004F00085B5826085BD85B5816085BD80916E00C2
:10050000816080936E0010928100809181008260F2
:10051000809381008091810081608093810080912F
:1005200080008160809380008091B100846080931E
:10053000B1008091B00081608093B0008091910003
:1005400082608093910080919100816080939100FE
:10055000809190008160809390008091A1008260E2
:100560008093A1008091A10081608093A10080917F
:10057000A00081608093A00080912101826080931F
:1005800021018091210181608093210180912001CE
:1005900081608093200180917A00846080937A004A
:1005A00080917A00826080937A0080917A008160E5
:1005B00080937A0080917A00806880937A0010920C
:1005C000C10000E112E0C0E0D2E0888122960E94E2
:1005D0003A01F80180810E5F1F4F0E943A01F2E05C
:1005E000C031DF0791F70E940A0290EA692E92E07B
:1005F000792E20E2E22E22E0F22E30E0C32E30E00F
:10060000D32E20E232E009EA12E0A80190E080E077
:10061000FA01E80FF91FD901A80FB91F6D917C915C
:100620007183608302968031910591F7205F3F4F7F
:10063000405F5F4F6216730649F7C0E1D2E0588011
:10064000229660E0852D0E945901B12CA12CF80161
:10065000EA0DFB1D80819181019739F461E0F5017C
:10066000E050FE4F80810E94590122E0A20EB11C91
:1006700080E1A816B10459F70E94E5014B015C0125
:100680000E94E501681979098A099B09683E73404F
:1006900081059105A8F361E0852D0E94590180E054
:1006A000A82E82E0B82EF5018081F2E0AF0EB11CD9
:1006B00060E00E94590120E1A21622E0B20699F7FB
:1006C000005F1F4FEC16FD0609F0B9CF0E940A0229
:1006D000C114D10409F495CF0E94000092CFEE0F0F
:1006E000FF1F881F8BBF0790F691E02D1994F89497
:0206F000FFCF3A
:1006F2002E002F003000310032003300340035006C
:1007020016001700180019001A001B001C001D001B
:1007120000000000010001000100010000000000D3
:1007220000000100010001000100010001000000C1
:1007320001000100000000000000000001000100B3
:1007420001000100000000000000000001000100A3
:10075200010001000100010001000100010001008F
:10076200010001000100010001000100010001007F
:100772000100010000000000000000000100010073
:100782000100010000000000000000000100010063
:00000001FF
