:100000000C9483000C94B4000C94B4000C94B400D1
:100010000C94B4000C94B4000C94B4000C94B40090
:100020000C94B4000C94B4000C94B4000C94B40080
:100030000C94B4000C94B4000C94B4000C94B40070
:100040000C94B4000C94B4000C94B4000C94B40060
:100050000C94B4000C94B4000C94B4000C9468029A
:100060000C94B4000C943C030C9412030C94B40054
:100070000C94B4000C94B4000C94B4000C94B40030
:100080000C94B4000C94B4000C94B4000C94B40020
:100090000C94DC020C94B2020C94B4000C94B400E6
:1000A0000C94B4000C94B4000C94B4000C94B40000
:1000B0000C94B4000C94B4000C94B4000C94B400F0
:1000C0000C94B4000C94B4000C94B4000C94B400E0
:1000D0000C94B4000C94B4000C94B4000C94B400D0
:1000E0000C94B4000C940A010C942D010C943B0167
:1000F0000C947D010C9472030C94CA010C94DD00E5
:100100000C941901720311241FBECFEFD1E2DEBFA0
:10011000CDBF00E00CBF12E0A0E0B2E0E8ECF9E0F7
:1001200000E00BBF02C007900D92A233B107D9F7D0
:1001300023E0A2E3B2E001C01D92A537B207E1F7C8
:1001400010E0C3E8D0E000E006C021970109802F4D
:10015000FE010E94DA04C238D10780E00807A9F73F
:100160000E94C5030C94E2040C940000FC01A089D9
:10017000B18982E08C93A485B5851C92A685B7854C
:100180008FEC8C93108EA489B58986E08C93A2891C
:10019000B3898C9180618C93A289B3898C9188609A
:1001A0008C93A289B3898C9180688C930288F3899F
:1001B000E02D80818F7D80830895AF92BF92CF9292
:1001C000DF92EF92FF920F931F93CF93DF936C0117
:1001D0007B018B01040F151FEB015E01AE18BF08F8
:1001E000C017D10759F06991D601ED91FC910190AA
:1001F000F081E02DC6011995892B79F7C501DF91B2
:10020000CF911F910F91FF90EF90DF90CF90BF9013
:10021000AF900895FC01538D448D252F30E0842F3D
:1002200090E0821B930B541710F0CF96089501971E
:100230000895FC01918D828D981761F0A28DAE0F0B
:10024000BF2FB11D5D968C91928D9F5F9F73928F92
:1002500090E008958FEF9FEF0895FC01918D828DBE
:10026000981731F0828DE80FF11D858D90E008958B
:100270008FEF9FEF0895FC01918D228D892F90E0E3
:10028000805C9F4F821B91098F73992708958BE3A0
:1002900092E00E943B0121E0892B09F420E0822FAB
:1002A000089588ED92E00E943B0121E0892B09F43A
:1002B00020E0822F0895FC01A48DA80FB92FB11D55
:1002C000A35ABF4F2C91848D90E001968F7399278C
:1002D000848FA689B7892C93A089B1898C9183706A
:1002E00080648C93938D848D981306C00288F38963
:1002F000E02D80818F7D80830895EF92FF920F9390
:100300001F93CF93DF93EC0181E0888F9B8D8C8DC1
:1003100098131AC0E889F989808185FF15C09FB7B5
:10032000F894EE89FF896083E889F9898081837078
:10033000806480839FBF81E090E0DF91CF911F9127
:100340000F91FF90EF900895F62E0B8D10E00F5F48
:100350001F4F0F731127E02E8C8D8E110CC00FB61E
:1003600007FCFACFE889F989808185FFF5CFCE01B6
:100370000E945B01F1CFEB8DEC0FFD2FF11DE35AD5
:10038000FF4FF0829FB7F8940B8FEA89FB89808139
:100390008062CFCFCF93DF93EC01888D8823B9F0B3
:1003A000AA89BB89E889F9898C9185FD03C0808180
:1003B00086FD0DC00FB607FCF7CF8C9185FFF2CFFD
:1003C000808185FFEDCFCE010E945B01E9CFDF91F7
:1003D000CF91089580E090E0892B29F00E9451018F
:1003E00081110E94000080E090E0892B29F00E949A
:1003F000470181110E94000080E090E0892B49F0C4
:1004000080E090E0892B29F00E94000081110E9479
:10041000000080E090E0892B49F080E090E0892B9B
:1004200029F00E94000081110C9400000895FC0145
:1004300001900020E9F73197AF01481B590BBC012F
:1004400088ED92E00C94DD008F929F92AF92BF9264
:100450000F931F93CF93DF93CDB7DEB7A1970FB65E
:10046000F894DEBF0FBECDBF19A2423008F44AE0B7
:100470008E010F5D1F4F842E912CB12CA12CA50154
:1004800094010E94B804E62FB901CA01EA30F4F4DD
:10049000E05DD801EE938D01232B242B252B79F7DA
:1004A00090E080E0109719F0CD010E941702A1960C
:1004B0000FB6F894DEBF0FBECDBFDF91CF911F9175
:1004C0000F91BF90AF909F908F900895E95CE1CF1E
:1004D0001F920F920FB60F9211242F933F938F9379
:1004E0009F93AF93BF938091370290913802A09170
:1004F0003902B0913A023091360223E0230F2D37B2
:1005000058F50196A11DB11D209336028093370244
:1005100090933802A0933902B0933A02809132024C
:1005200090913302A0913402B09135020196A11D41
:10053000B11D8093320290933302A0933402B093A2
:100540003502BF91AF919F918F913F912F910F9065
:100550000FBE0F901F90189526E8230F0296A11D3D
:10056000B11DD2CF1F920F920FB60F9211240BB66E
:100570000F922F933F934F935F936F937F938F933C
:100580009F93AF93BF93EF93FF938BE392E00E940F
:100590005B01FF91EF91BF91AF919F918F917F91FF
:1005A0006F915F914F913F912F910F900BBE0F90E4
:1005B0000FBE0F901F9018951F920F920FB60F92BB
:1005C00011240BB60F922F938F939F93EF93FF936A
:1005D000E0914B02F0914C028081E0915102F09148
:1005E000520282FD1DC09081809154028F5F8F73F3
:1005F00020915502821741F0E0915402F0E0E55C51
:10060000FD4F958F80935402FF91EF919F918F91B1
:100610002F910F900BBE0F900FBE0F901F9018954B
:100620008081F2CF1F920F920FB60F9211240BB65A
:100630000F922F933F934F935F936F937F938F937B
:100640009F93AF93BF93EF93FF9388ED92E00E9447
:100650005B01FF91EF91BF91AF919F918F917F913E
:100660006F915F914F913F912F910F900BBE0F9023
:100670000FBE0F901F9018951F920F920FB60F92FA
:1006800011240BB60F922F938F939F93EF93FF93A9
:10069000E091E802F091E9028081E091EE02F091B0
:1006A000EF0282FD1DC090818091F1028F5F8F73F8
:1006B0002091F202821741F0E091F102F0E0E8525D
:1006C000FD4F958F8093F102FF91EF919F918F9154
:1006D0002F910F900BBE0F900FBE0F901F9018958B
:1006E0008081F2CFEBE3F2E01382128248EE53E016
:1006F00060E070E0448355836683778384E092E012
:10070000918380832DEC30E0358724872CEC30E01A
:100710003787268728EC30E0318B208B29EC30E0BE
:10072000338B228B2AEC30E0358B248B2EEC30E09F
:10073000378B268B118E128E138E148EE8EDF2E01D
:1007400013821282448355836683778391838083E7
:1007500085EC90E09587848784EC90E09787868786
:1007600080EC90E0918B808B81EC90E0938B828B7E
:1007700082EC90E0958B848B86EC90E0978B868B57
:10078000118E128E138E148E0895CF93DF93CDB7F2
:10079000DEB72C970FB6F894DEBF0FBECDBF7894AE
:1007A00084B5826084BD84B5816084BD85B5826076
:1007B00085BD85B5816085BD80916E008160809327
:1007C0006E00109281008091810082608093810090
:1007D00080918100816080938100809180008160A0
:1007E000809380008091B10084608093B1008091FB
:1007F000B00081608093B00080919100826080930E
:10080000910080919100816080939100809190008F
:100810008160809390008091A10082608093A1000C
:100820008091A10081608093A1008091A0008160EF
:100830008093A000809121018260809321018091AA
:10084000210181608093210180912001816080934A
:10085000200180917A00846080937A0080917A00F0
:10086000826080937A0080917A00816080937A0020
:1008700080917A00806880937A001092C10088EDA0
:1008800092E00E94B6008BE392E00E94B600F12C49
:10089000E12CC7010E94B004682F70E090E080E076
:1008A0004AE00E94240282E192E00E9417028FEF48
:1008B000E81AF80AEFEFEE16F10459F78E010F5F10
:1008C0001F4FF12CE12CC7010E94B004F801819365
:1008D0008F01FFEFEF1AFF0A8CE0E816F10499F799
:1008E00085E192E00E941702C980DA800D2C000C8D
:1008F000EE08FF084AE0C701B601F7FE0DC06DE241
:1009000088ED92E00E947D0166277727CB016C1964
:100910007D098E099F094AE00E94240281E292E04B
:100920000E941702CE0103960E94170282E192E014
:100930000E9417028BE392E00E943B01892B69F031
:100940008BE392E00E941901682F88ED92E00E94EB
:100950007D0182E192E00E9417020E94EA01EACF43
:10096000F999FECF92BD81BDF89A992780B5089577
:10097000A1E21A2EAA1BBB1BFD010DC0AA1FBB1FA3
:10098000EE1FFF1FA217B307E407F50720F0A21B15
:10099000B30BE40BF50B661F771F881F991F1A9482
:1009A00069F760957095809590959B01AC01BD01AC
:1009B000CF010895EE0FFF1F881F8BBF0790F691A0
:0809C000E02D1994F894FFCF1B
:1009C800000000007D01DD000A01CA013B01190198
:1009D8002D010D0A004C6120656461642065732057
:1009E800002079206D69206E6F6D627265206573D5
:0209F8002000DD
:00000001FF
