:100000000C9483000C94B4000C94B4000C94B400D1
:100010000C94B4000C94B4000C94B4000C94B40090
:100020000C94B4000C94B4000C94B4000C94B40080
:100030000C94B4000C94B4000C94B4000C94B40070
:100040000C94B4000C94B4000C94B4000C94B40060
:100050000C94B4000C94B4000C94B4000C941702EB
:100060000C94B4000C94EB020C94C1020C94B400F8
:100070000C94B4000C94B4000C94B4000C94B40030
:100080000C94B4000C94B4000C94B4000C94B40020
:100090000C948B020C9461020C94B4000C94B40088
:1000A0000C94B4000C94B4000C94B4000C94B40000
:1000B0000C94B4000C94B4000C94B4000C94B400F0
:1000C0000C94B4000C94B4000C94B4000C94B400E0
:1000D0000C94B4000C94B4000C94B4000C94B400D0
:1000E0000C94B4000C9419010C94CA010C947D0179
:1000F0000C943B010C940A010C9421030C942D01E7
:100100000C94DD00210311241FBECFEFD1E2DEBF2E
:10011000CDBF00E00CBF12E0A0E0B2E0E0E1F8E00B
:1001200000E00BBF02C007900D92A231B107D9F7D2
:1001300023E0A2E1B2E001C01D92A535B207E1F7CC
:1001400010E0C3E8D0E000E006C021970109802F4D
:10015000FE010E94FE03C238D10780E00807A9F71C
:100160000E9474030C9406040C940000FC01A08906
:10017000B18982E08C93A485B5851C92A685B7854C
:100180008FEC8C93108EA489B58986E08C93A2891C
:10019000B3898C9180618C93A289B3898C9188609A
:1001A0008C93A289B3898C9180688C930288F3899F
:1001B000E02D80818F7D80830895AF92BF92CF9292
:1001C000DF92EF92FF920F931F93CF93DF936C0117
:1001D0007B018B01040F151FEB015E01AE18BF08F8
:1001E000C017D10759F06991D601ED91FC910190AA
:1001F000F081E02DC6011995892B79F7C501DF91B2
:10020000CF911F910F91FF90EF90DF90CF90BF9013
:10021000AF900895FC01538D448D252F30E0842F3D
:1002200090E0821B930B541710F0CF96089501971E
:100230000895FC01918D828D981761F0A28DAE0F0B
:10024000BF2FB11D5D968C91928D9F5F9F73928F92
:1002500090E008958FEF9FEF0895FC01918D828DBE
:10026000981731F0828DE80FF11D858D90E008958B
:100270008FEF9FEF0895FC01918D228D892F90E0E3
:10028000805C9F4F821B91098F73992708958BE1A2
:1002900092E00E943B0121E0892B09F420E0822FAB
:1002A000089588EB92E00E943B0121E0892B09F43C
:1002B00020E0822F0895FC01A48DA80FB92FB11D55
:1002C000A35ABF4F2C91848D90E001968F7399278C
:1002D000848FA689B7892C93A089B1898C9183706A
:1002E00080648C93938D848D981306C00288F38963
:1002F000E02D80818F7D80830895EF92FF920F9390
:100300001F93CF93DF93EC0181E0888F9B8D8C8DC1
:1003100098131AC0E889F989808185FF15C09FB7B5
:10032000F894EE89FF896083E889F9898081837078
:10033000806480839FBF81E090E0DF91CF911F9127
:100340000F91FF90EF900895F62E0B8D10E00F5F48
:100350001F4F0F731127E02E8C8D8E110CC00FB61E
:1003600007FCFACFE889F989808185FFF5CFCE01B6
:100370000E945B01F1CFEB8DEC0FFD2FF11DE35AD5
:10038000FF4FF0829FB7F8940B8FEA89FB89808139
:100390008062CFCFCF93DF93EC01888D8823B9F0B3
:1003A000AA89BB89E889F9898C9185FD03C0808180
:1003B00086FD0DC00FB607FCF7CF8C9185FFF2CFFD
:1003C000808185FFEDCFCE010E945B01E9CFDF91F7
:1003D000CF91089580E090E0892B29F00E9451018F
:1003E00081110E94000080E090E0892B29F00E949A
:1003F000470181110E94000080E090E0892B49F0C4
:1004000080E090E0892B29F00E94000081110E9479
:10041000000080E090E0892B49F080E090E0892B9B
:1004200029F00E94000081110C94000008951F9291
:100430000F920FB60F9211242F933F938F939F9398
:10044000AF93BF938091170290911802A091190267
:10045000B0911A023091160223E0230F2D3758F580
:100460000196A11DB11D209316028093170290934F
:100470001802A0931902B0931A028091120290916F
:100480001302A0911402B09115020196A11DB11D95
:100490008093120290931302A0931402B09315025A
:1004A000BF91AF919F918F913F912F910F900FBE70
:1004B0000F901F90189526E8230F0296A11DB11DDD
:1004C000D2CF1F920F920FB60F9211240BB60F923C
:1004D0002F933F934F935F936F937F938F939F934C
:1004E000AF93BF93EF93FF938BE192E00E945B0188
:1004F000FF91EF91BF91AF919F918F917F916F91FC
:100500005F914F913F912F910F900BBE0F900FBEB7
:100510000F901F9018951F920F920FB60F921124F3
:100520000BB60F922F938F939F93EF93FF93E091CE
:100530002B02F0912C028081E0913102F091320285
:1005400082FD1DC09081809134028F5F8F73209156
:100550003502821741F0E0913402F0E0E55EFD4F94
:10056000958F80933402FF91EF919F918F912F91FE
:100570000F900BBE0F900FBE0F901F9018958081AB
:10058000F2CF1F920F920FB60F9211240BB60F925B
:100590002F933F934F935F936F937F938F939F938B
:1005A000AF93BF93EF93FF9388EB92E00E945B01C0
:1005B000FF91EF91BF91AF919F918F917F916F913B
:1005C0005F914F913F912F910F900BBE0F900FBEF7
:1005D0000F901F9018951F920F920FB60F92112433
:1005E0000BB60F922F938F939F93EF93FF93E0910E
:1005F000C802F091C9028081E091CE02F091CF0251
:1006000082FD1DC090818091D1028F5F8F732091F8
:10061000D202821741F0E091D102F0E0E854FD4FA0
:10062000958F8093D102FF91EF919F918F912F91A0
:100630000F900BBE0F900FBE0F901F9018958081EA
:10064000F2CFEBE1F2E01382128248EE53E060E079
:1006500070E0448355836683778384E092E09183DE
:1006600080832DEC30E0358724872CEC30E0378711
:10067000268728EC30E0318B208B29EC30E0338B5F
:10068000228B2AEC30E0358B248B2EEC30E0378B3C
:10069000268B118E128E138E148EE8EBF2E01382ED
:1006A000128244835583668377839183808385ECAC
:1006B00090E09587848784EC90E09787868780EC2C
:1006C00090E0918B808B81EC90E0938B828B82EC1D
:1006D00090E0958B848B86EC90E0978B868B118EC7
:1006E000128E138E148E0895789484B5826084BD22
:1006F00084B5816084BD85B5826085BD85B5816026
:1007000085BD80916E00816080936E0010928100A3
:10071000809181008260809381008091810081605E
:10072000809381008091800081608093800080911F
:10073000B10084608093B1008091B00081608093AB
:10074000B00080919100826080939100809191002F
:1007500081608093910080919000816080939000EF
:100760008091A10082608093A1008091A1008160AE
:100770008093A1008091A00081608093A00080916F
:100780002101826080932101809121018160809309
:1007900021018091200181608093200180917A0065
:1007A000846080937A0080917A00826080937A00DE
:1007B00080917A00816080937A0080917A008068CD
:1007C00080937A001092C10088EB92E00E94B600FC
:1007D0008BE192E00E94B60088EB92E00E943B0120
:1007E000892B49F088EB92E00E941901682F8BE178
:1007F00092E00E947D010E94EA01EECFEE0FFF1F02
:10080000881F8BBF0790F691E02D1994F894FFCFC5
:10081000000000007D01DD000A01CA013B01190151
:020820002D01A8
:00000001FF
