:100000000C9428010C9459010C9459010C94590139
:100010000C9459010C9459010C9459010C945901F8
:100020000C9459010C9459010C9459010C945901E8
:100030000C9459010C9459010C9459010C945901D8
:100040000C9459010C94AA050C9459010C94590173
:100050000C9459010C9459010C9459010C94D60438
:100060000C9459010C94A0040C9476040C9459013E
:100070000C9459010C9459010C9459010C94590198
:100080000C947C050C9459010C9459010C94590161
:100090000C9459010C9459010C9459010C94590178
:1000A0000C9459010C9459010C944E050C9459016F
:1000B0000C9459010C9459010C9459010C9420058D
:1000C0000C9459010C9459010C9459010C94590148
:1000D0000C9459010C9459010C9459010C94590138
:1000E0000C9459010C9404020C9461030C947F034A
:1000F0000C94D7010C9440030C9475030C945E038C
:100100000C948D030C9471030C9435020C945A03D7
:100110000C9479030C9427020C946D020C948303C5
:100120000C9452030C94BA020C9491030C94560351
:100130000C9413020C943B030C9487030C946703F8
:100140000C946B030C94D80500000A0B02090C0DEB
:100150000E0807030401000000000000000000007A
:10016000000000000000000000000000000000008F
:10017000000000001211100000000000000000004C
:10018000000000000000000000000000000000006F
:100190002200250028002B002E003100340002012F
:1001A0000000050108010B010000210024002700C8
:1001B0002A002D0030003300010100000401070176
:1001C0000A010505050507050808080802020202DC
:1001D0000A0A0808040404040101010101010101E3
:1001E0000303030303030303040707070C0C0C0CAE
:1001F0000C0C0C0C02020202060606060606060697
:100200000B0B0B0B0B0B0B0B010210202008081023
:100210002040102040800201020108040201010276
:10022000040810204080804020100804020180044F
:1002300002018040201008040201080402010102AA
:100240000408102040800102040810204080D805D6
:1002500011241FBECFEFD1E2DEBFCDBF00E00CBF47
:1002600012E0A0E0B2E0ECE5F0E100E00BBF02C07C
:1002700007900D92A431B107D9F723E0A4E1B2E0D1
:1002800001C01D92A235B207E1F711E0C8E2D1E04A
:1002900000E006C021970109802FFE010E9424087A
:1002A000C732D10780E00807A9F70E9435060C94F1
:1002B0002C080C940000CF92DF92EF92FF92DC01A9
:1002C000A03282E0B807D4F5A53BB10514F0A4EB49
:1002D000B0E04091500328E830E0241B310947FD8D
:1002E0003395220F331F220F331F6901330FEE089E
:1002F000FF084091510328E532E0241B310947FDF6
:100300003395220F331F220F331F032E000C440B93
:10031000550B2C193D094E095F09B7FF02C0B0E02B
:10032000A0E00E94DF0724EB30E040E050E00E94B4
:10033000B507C20ED31EE41EF51ED601E0914F0391
:10034000E03380F52091500388E890E0821B91090A
:1003500027FD9395880F991F880F991FA817B90734
:1003600084F02091510388E592E0821B910927FDDA
:100370009395880F991F880F991FA817B9070CF438
:10038000CD010297880F991F4FB7F8942E2F30E0B8
:10039000F901EE0FFF1FE20FF31FE254FD4F9283AE
:1003A00081834FBFFF90EF90DF90CF900895AF9281
:1003B000BF92CF92DF92EF92FF920F931F93CF9352
:1003C000DF936C017B018B01040F151FEB015E01B4
:1003D000AE18BF08C017D10759F06991D601ED9149
:1003E000FC910190F081E02DC6011995892B79F7D8
:1003F000C501DF91CF911F910F91FF90EF90DF909A
:10040000CF90BF90AF900895FC01538D448D252F60
:1004100030E0842F90E0821B930B541710F0CF969E
:10042000089501970895FC01918D828D981761F0D0
:10043000A28DAE0FBF2FB11D5D968C91928D9F5FE7
:100440009F73928F90E008958FEF9FEF0895FC01C6
:10045000918D828D981731F0828DE80FF11D858D79
:1004600090E008958FEF9FEF0895FC01918D228D0C
:10047000892F90E0805C9F4F821B91098F73992791
:10048000089581E292E00E94350221E0892B09F46F
:1004900020E0822F0895FC01A48DA80FB92FB11D73
:1004A000A35ABF4F2C91848D90E001968F739927AA
:1004B000848FA689B7892C93A089B1898C91837088
:1004C00080648C93938D848D981306C00288F38981
:1004D000E02D80818F7D80830895EF92FF920F93AE
:1004E0001F93CF93DF93EC0181E0888F9B8D8C8DE0
:1004F00098131AC0E889F989808185FF15C09FB7D4
:10050000F894EE89FF896083E889F9898081837096
:10051000806480839FBF81E090E0DF91CF911F9145
:100520000F91FF90EF900895F62E0B8D10E00F5F66
:100530001F4F0F731127E02E8C8D8E110CC00FB63C
:1005400007FCFACFE889F989808185FFF5CFCE01D4
:100550000E944B02F1CFEB8DEC0FFD2FF11DE35A02
:10056000FF4FF0829FB7F8940B8FEA89FB89808157
:100570008062CFCFCF93DF93EC01888D8823B9F0D1
:10058000AA89BB89E889F9898C9185FD03C080819E
:1005900086FD0DC00FB607FCF7CF8C9185FFF2CF1B
:1005A000808185FFEDCFCE010E944B02E9CFDF9124
:1005B000CF91089580E090E0892B29F00E944102BC
:1005C00081110E94000080E090E0892B49F080E0DA
:1005D00090E0892B29F00E94000081110E94000008
:1005E00080E090E0892B49F080E090E0892B29F0B1
:1005F0000E94000081110E94000080E090E0892BA1
:1006000049F080E090E0892B29F00E9400008111E0
:100610000C9400000895282F30E0F901E85BFE4FAC
:100620009491F901E85FFD4F44912E533E4FF9013B
:100630002491222309F435C0992311F1915092316C
:10064000F8F4E92FF0E08827E75DFC4F8F4F0C941A
:1006500024085A035E033B0352035603400361031D
:1006600067036B037103750379037F0383034003FF
:1006700087038D039103809180008F7780938000A2
:10068000E22FF0E0EE0FFF1FE257FE4FA591B4916D
:100690008FB7F894EC91611148C040954E234C936C
:1006A0008FBF0895809180008F7DE8CF809180007A
:1006B000877FE4CF84B58F7784BDE2CF84B58F7D0B
:1006C000FBCF8091B0008F778093B000D9CF80911D
:1006D000B0008F7DF9CF809190008F77809390004C
:1006E000CFCF809190008F7DF9CF80919000877F50
:1006F000F5CF8091A0008F778093A000C1CF80912B
:10070000A0008F7DF9CF8091A000877FF5CF8091E9
:1007100020018F7780932001B3CF809120018F7DBE
:10072000F9CF80912001877FF5CF4E2BB8CF3FB70F
:10073000F89480911D0290911E02A0911F02B09129
:10074000200226B5A89B05C02F3F19F00196A11DD8
:10075000B11D3FBFBA2FA92F982F8827BC01CD010B
:10076000620F711D811D911D42E0660F771F881F6A
:10077000991F4A95D1F70895AF92BF92CF92DF9219
:10078000EF92FF920F931F93CF93DF936B017A0148
:10079000EC01CC5EDD4F28813CE0389F8001399F21
:1007A000100D1124A0904E03B12C27FF1FC0FB0198
:1007B0001182108288818F5F888388819801280F39
:1007C000311D87FD3A95F6012A153B051CF48881F9
:1007D0008C30C4F180819181049680349C4908F466
:1007E00073C0F60180819181049670C08881980160
:1007F000280F311D87FD3A952A153B05DCF68881C7
:10080000A801480F511D87FD5A95FA01EE0FFF1FF1
:10081000E40FF51FE254FD4F808186FFCBCF888126
:10082000F801E80FF11D87FDFA95CF01EE0FFF1FCC
:10083000E80FF91FE254FD4F808160E08F730E9442
:100840000B03B8CF808191812881A801420F511DEF
:1008500027FD5A959A01FA01EE0FFF1FE20FF31FD1
:10086000E254FD4F21813281820F931FF701918362
:10087000808388819801280F311D87FD3A95F90101
:10088000EE0FFF1FE20FF31FE254FD4F808186FF42
:1008900022C08881080F111D87FD1A95F801EE0FFF
:1008A000FF1FE00FF11FE254FD4F808161E08F7365
:1008B000DF91CF911F910F91FF90EF90DF90CF903C
:1008C000BF90AF900C940B0380E49CE9F7019183F7
:1008D00080838FEF8883DF91CF911F910F91FF90DD
:1008E000EF90DF90CF90BF90AF9008951F920F923E
:1008F0000FB60F9211240BB60F922F933F934F9385
:100900005F936F937F938F939F93AF93BF93EF9377
:10091000FF9381E292E00E944B02FF91EF91BF9121
:10092000AF919F918F917F916F915F914F913F9187
:100930002F910F900BBE0F900FBE0F901F90189528
:100940001F920F920FB60F9211240BB60F922F9396
:100950008F939F93EF93FF93E0913102F0913202D6
:100960008081E0913702F091380282FD1DC09081B4
:1009700080913A028F5F8F7320913B02821741F082
:10098000E0913A02F0E0EF5DFD4F958F80933A02DF
:10099000FF91EF919F918F912F910F900BBE0F9030
:1009A0000FBE0F901F9018958081F2CF1F920F926B
:1009B0000FB60F9211242F933F938F939F93AF9372
:1009C000BF938091190290911A02A0911B02B091DD
:1009D0001C023091180223E0230F2D3758F50196A1
:1009E000A11DB11D209318028093190290931A0241
:1009F000A0931B02B0931C0280911D0290911E02D5
:100A0000A0911F02B09120020196A11DB11D8093FB
:100A10001D0290931E02A0931F02B0932002BF916B
:100A2000AF919F918F913F912F910F900FBE0F909B
:100A30001F90189526E8230F0296A11DB11DD2CF55
:100A40001F920F920FB60F9211240BB60F922F9395
:100A50003F934F935F936F937F938F939F93AF9346
:100A6000BF93EF93FF9348E251E064E271E090E0BE
:100A700080E00E94BC03FF91EF91BF91AF919F91E5
:100A80008F917F916F915F914F913F912F910F9037
:100A90000BBE0F900FBE0F901F9018951F920F92D4
:100AA0000FB60F9211240BB60F922F933F934F93D3
:100AB0005F936F937F938F939F93AF93BF93EF93C6
:100AC000FF9348EA50E064EA70E083E090E00E941F
:100AD000BC03FF91EF91BF91AF919F918F917F9157
:100AE0006F915F914F913F912F910F900BBE0F909F
:100AF0000FBE0F901F9018951F920F920FB60F9276
:100B000011240BB60F922F933F934F935F936F93E4
:100B10007F938F939F93AF93BF93EF93FF9348E996
:100B200050E064E970E082E090E00E94BC03FF9135
:100B3000EF91BF91AF919F918F917F916F915F9155
:100B40004F913F912F910F900BBE0F900FBE0F90C2
:100B50001F9018951F920F920FB60F9211240BB68B
:100B60000F922F933F934F935F936F937F938F9346
:100B70009F93AF93BF93EF93FF9348E850E064E8EF
:100B800070E081E090E00E94BC03FF91EF91BF9183
:100B9000AF919F918F917F916F915F914F913F9115
:100BA0002F910F900BBE0F900FBE0F901F901895B6
:100BB000109224021092230288EE93E0A0E0B0E0AD
:100BC0008093250290932602A0932702B0932802D7
:100BD00086E092E0909322028093210285EC90E0DF
:100BE00090932E0280932D0284EC90E0909330023B
:100BF00080932F0280EC90E0909332028093310238
:100C000081EC90E0909334028093330282EC90E088
:100C1000909336028093350286EC90E090933802F0
:100C20008093370210923A0210923B0210923C02DB
:100C300010923D0280914E03803398F491E0980F1A
:100C400090934E0380934F0390E0FC01EE0FFF1F43
:100C5000E80FF91FE254FD4F88EB9BE092838183FC
:100C600008958FEF80934F030895789484B5826040
:100C700084BD84B5816084BD85B5826085BD85B540
:100C8000816085BD80916E00816080936E001092BE
:100C90008100809181008260809381008091810039
:100CA00081608093810080918000816080938000CA
:100CB0008091B10084608093B1008091B000816028
:100CC0008093B00080919100826080939100809128
:100CD0009100816080939100809190008160809369
:100CE00090008091A10082608093A1008091A1007A
:100CF00081608093A1008091A00081608093A0001A
:100D00008091210182608093210180912101816085
:100D10008093210180912001816080932001809146
:100D20007A00846080937A0080917A008260809358
:100D30007A0080917A00816080937A0080917A00B5
:100D4000806880937A001092C100E0913102F091A6
:100D5000320282E08083E0912D02F0912E02108217
:100D6000E0912F02F09130028FEC808310923902D3
:100D7000E0913502F091360286E08083E091330203
:100D8000F0913402808180618083E0913302F091A0
:100D90003402808188608083E0913302F0913402D4
:100DA000808180688083E0913302F09134028081F9
:100DB0008F7D808380914F03803308F069C0E1E12B
:100DC000F2E02491EBECF1E08491882399F090E03B
:100DD000880F991FFC01E855FE4FA591B491FC01C5
:100DE000E257FE4F859194918FB7F894EC91E22BE6
:100DF000EC938FBF80914F03282F30E0F901EE0F65
:100E0000FF1FE20FF31FE254FD4F9081907C996029
:100E1000908310925003109251032CE0622F0E9495
:100E20001808829FB001112430E020E0AB01420F8E
:100E3000531FFA01EE0FFF1FE40FF51FE254FD4FA1
:100E4000908196FD17C02F5F3F4F2C30310571F711
:100E5000813009F05BC01092800082E080938100B5
:100E60001092850010928400B19A80916F00826088
:100E700080936F00E0914F038E2F90E0FC01EE0F06
:100E8000FF1FE80FF91FE254FD4F808180648083CB
:100E900090E080E00E945B0110920102109200023B
:100EA000C0910002D0910102C53BD1050CF05AC09F
:100EB000CE010E945B010E9497036B017C0188EECA
:100EC000882E83E0982EA12CB12C0E9497036C19D8
:100ED0007D098E099F09683E734081059105A8F33D
:100EE00021E0821A9108A108B10888EEC80E83E0BB
:100EF000D81EE11CF11C81149104A104B10429F74E
:100F00002A96D0930102C0930002CACF823061F4C6
:100F1000109290008093910010929500109294008E
:100F200088BB80937100A6CF833069F41092A00033
:100F300082E08093A1001092A5001092A40089BBCA
:100F40008093720097CF811195CF1092200182E09B
:100F50008093210110922501109224018ABB809375
:100F6000730088CF0E94DA0297CF052E97FB1EF4FC
:100F700000940E94CC0757FD07D00E94E70707FCAA
:100F800003D04EF40C94CC075095409530952195A4
:100F90003F4F4F4F5F4F08959095809570956195A5
:100FA0007F4F8F4F9F4F08950E940908A59F900D76
:100FB000B49F900DA49F800D911D11240895B7FF3B
:100FC0000C94D4070E94D407821B930B0895A1E2CE
:100FD0001A2EAA1BBB1BFD010DC0AA1FBB1FEE1FB3
:100FE000FF1FA217B307E407F50720F0A21BB30BFE
:100FF000E40BF50B661F771F881F991F1A9469F77A
:1010000060957095809590959B01AC01BD01CF01D5
:101010000895A29FB001B39FC001A39F700D811DD1
:101020001124911DB29F700D811D1124911D0895F1
:10103000991B79E004C0991F961708F0961B881F2A
:101040007A95C9F780950895EE0FFF1F881F8BBF13
:0C1050000790F691E02D1994F894FFCF62
:10105C000A00000000006D02D7010402BA0235023A
:04106C001302270242
:00000001FF
